:020000040800F2
:10000000005000203D190008751500087B150008F8
:1000100081150008871500088D15000800000000F4
:100020000000000000000000000000009315000820
:100030009F15000800000000AB150008B715000868
:100040008519000885190008851900088519000818
:100050008519000885190008851900088519000808
:1000600085190008851900088519000885190008F8
:1000700085190008851900088519000885190008E8
:1000800085190008851900088519000885190008D8
:1000900085190008851900088519000885190008C8
:1000A00085190008C515000885190008851900087C
:1000B000D915000885190008851900088519000858
:1000C0008519000885190008851900088519000898
:1000D0008519000885190008ED1500088519000824
:1000E00001160008851900088519000800000000A5
:1000F0000000000000000000000000000000000000
:0C01000000000000000000005FF808F1A3
:10010C0010B5054C237833B9044B13B10448AFF345
:10011C0000800123237010BD64000020000000004B
:10012C004048000808B5034B1BB103490348AFF323
:10013C00008008BD00000000680000204048000856
:10014C0070B54FF0FF0C4CF4E06C1CEA11541DBF61
:10015C001CEA135594EA0C0F95EA0C0F00F0DEF82C
:10016C002C4481EA030621EA4C5123EA4C5350EA11
:10017C00013518BF52EA033541F4801143F4801362
:10018C0038D0A0FB02CE4FF00005E1FB02E506F0F3
:10019C000042E0FB03E54FF00006E1FB03569CF048
:1001AC00000F18BF4EF0010EA4F1FF04B6F5007F4E
:1001BC0064F5407404D25FEA4E0E6D4146EB0606C0
:1001CC0042EAC62141EA55514FEAC52040EA5E5049
:1001DC004FEACE2EB4F1FD0C88BFBCF5E06F1ED8F3
:1001EC00BEF1004F08BF5FEA500E50F1000041EB2A
:1001FC00045170BD06F0004646EA010140EA0200D7
:10020C0081EA0301B4EB5C04C2BFD4EB0C0541EAF8
:10021C00045170BD41F480114FF0000E013C00F30D
:10022C00AB8014F1360FDEBF002001F0004170BD31
:10023C00C4F10004203C35DA0C341BDC04F114044A
:10024C00C4F1200500FA05F320FA04F001FA05F2D6
:10025C0040EA020001F0004221F0004110EBD370A3
:10026C0021FA04F642EB06015EEA430E08BF20EACF
:10027C00D37070BDC4F10C04C4F1200500FA04F372
:10028C0020FA05F001FA04F240EA020001F0004104
:10029C0010EBD37041F100015EEA430E08BF20EA77
:1002AC00D37070BDC4F1200500FA05F24EEA020EBF
:1002BC0020FA04F301FA05F243EA020321FA04F0EE
:1002CC0001F0004121FA04F220EA020000EBD370A5
:1002DC005EEA430E08BF20EAD37070BD94F0000FA5
:1002EC000FD101F00046400041EB010111F4801FD9
:1002FC0008BF013CF7D041EA060195F0000F18BF8A
:10030C00704703F00046520043EB030313F4801FC5
:10031C0008BF013DF7D043EA0603704794EA0C0F7F
:10032C000CEA135518BF95EA0C0F0CD050EA410695
:10033C0018BF52EA4306D1D181EA030101F0004112
:10034C004FF0000070BD50EA410606BF104619463A
:10035C0052EA430619D094EA0C0F02D150EA013646
:10036C0013D195EA0C0F05D152EA03361CBF104687
:10037C0019460AD181EA030101F0004141F0FE4126
:10038C0041F470014FF0000070BD41F0FE4141F4AA
:10039C00780170BD81F0004102E000BF83F00043A2
:1003AC0030B54FEA41044FEA430594EA050F08BF04
:1003BC0090EA020F1FBF54EA000C55EA020C7FEAC8
:1003CC00645C7FEA655C00F0E2804FEA5454D4EB45
:1003DC005555B8BF6D420CDD2C4480EA020281EA0F
:1003EC00030382EA000083EA010180EA020281EA47
:1003FC000303362D88BF30BD11F0004F4FEA013199
:10040C004FF4801C4CEA113102D0404261EB4101A7
:10041C0013F0004F4FEA03334CEA133302D052422D
:10042C0063EB430394EA050F00F0A780A4F10104E9
:10043C00D5F1200E0DDB02FA0EFC22FA05F2801823
:10044C0041F1000103FA0EF2801843FA05F3594109
:10045C000EE0A5F120050EF1200E012A03FA0EFC88
:10046C0028BF4CF0020C43FA05F3C01851EBE371B2
:10047C0001F0004507D54FF0000EDCF1000C7EEBCF
:10048C0000006EEB0101B1F5801F1BD3B1F5001F0D
:10049C000CD349085FEA30004FEA3C0C04F101042C
:1004AC004FEA445212F5800F80F09A80BCF1004F55
:1004BC0008BF5FEA500C50F1000041EB045141EAD7
:1004CC00050130BD5FEA4C0C404141EB0101013CA0
:1004DC0028BFB1F5801FE9D291F0000F04BF01468F
:1004EC000020B1FA81F308BF2033A3F10B03B3F161
:1004FC0020020CDA0C3208DD02F1140CC2F10C02F1
:10050C0001FA0CF021FA02F10CE002F11402D8BF4E
:10051C00C2F1200C01FA02F120FA0CFCDCBF41EA1A
:10052C000C019040E41AA2BF01EB0451294330BDE9
:10053C006FEA04041F3C1CDA0C340EDC04F11404C6
:10054C00C4F1200220FA04F001FA02F340EA03009D
:10055C0021FA04F345EA030130BDC4F10C04C4F1E3
:10056C00200220FA02F001FA04F340EA03002946C3
:10057C0030BD21FA04F0294630BD94F0000F83F40D
:10058C00801306BF81F480110134013D4EE77FEAF0
:10059C00645C18BF7FEA655C29D094EA050F08BF3C
:1005AC0090EA020F05D054EA000C04BF194610461D
:1005BC0030BD91EA030F1EBF0021002030BD5FEA61
:1005CC00545C05D14000494128BF41F0004130BD89
:1005DC0014F580043CBF01F5801130BD01F00045DD
:1005EC0045F0FE4141F470014FF0000030BD7FEA50
:1005FC00645C1ABF194610467FEA655C1CBF0B464B
:10060C00024650EA013406BF52EA033591EA030F61
:10061C0041F4002130BD00BF90F0000F04BF002159
:10062C00704730B54FF4806404F132044FF000058C
:10063C004FF0000150E700BF90F0000F04BF002105
:10064C00704730B54FF4806404F1320410F000456B
:10065C0048BF40424FF000013EE700BF42004FEA66
:10066C00E2014FEA31014FEA02701FBF12F07F43E3
:10067C0093F07F4F81F06051704732F07F4208BF9A
:10068C00704793F07F4F04BF41F40021704730B5A1
:10069C004FF4607401F0004521F000411CE700BFED
:1006AC0050EA010208BF704730B54FF000050AE070
:1006BC0050EA010208BF704730B511F0004502D571
:1006CC00404261EB41014FF4806404F132045FEA73
:1006DC00915C3FF4D8AE4FF003025FEADC0C18BF1C
:1006EC0003325FEADC0C18BF033202EBDC02C2F10E
:1006FC00200300FA03FC20FA02F001FA03FE40EAA0
:10070C000E0021FA02F11444BDE600BF4FEA41028B
:10071C0012F5001215D211D56FF47873B3EB625247
:10072C0012D94FEAC12343F0004343EA505311F06E
:10073C00004F23FA02F018BF404270474FF0000000
:10074C00704750EA013005D111F0004008BF6FF03E
:10075C00004070474FF00000704700BF034613F88D
:10076C00012B002AFBD1181A0138704780B582B0D2
:10077C0000AF7860396001225B49786802F053FD64
:10078C005A4B1B78002B55D0574B1B78772B06D028
:10079C00772B4ADC662B40D0732B1FD045E0544B93
:1007AC001B780133002B03F00103B8BF5B42DAB2B4
:1007BC004F4B1A704E4B1B78002B07D04D494E48AF
:1007CC0003F0ECFB4D4B02221A707BE04C494A487B
:1007DC0003F0E4FB494B00221A7073E0444B1B7886
:1007EC000133002B03F00103B8BF5B42DAB2404B7C
:1007FC001A703F4B1B78002B07D042493E4803F040
:10080C00CDFB3E4B01221A705CE03D493A4803F0A7
:10081C00C5FB3A4B00221A7054E03B4B1B781A462E
:10082C003A49354803F0BAFB4CE03949324803F0F9
:10083C00B5FB47E02C4B1B78342B0FDC312B3CDB0E
:10084C00313B032B39D801A252F823F06F08000872
:10085C008108000893080008A5080008662B24D01E
:10086C002BE00121386800F0D7FB2A49224803F01D
:10087C0095FB27E00221386800F0CEFB26491E4884
:10088C0003F08CFB1EE00321386800F0C5FB234904
:10089C00194803F083FB15E00421386800F0BCFB19
:1008AC001F49154803F07AFB0CE0174B1B781A46CE
:1008BC001C49114803F072FB04E01B490E4803F07D
:1008CC006DFB00BF0C48FFF749FF03469AB20A23A1
:1008DC000949164802F024FC074B00221A7000BF8D
:1008EC000837BD4680BD00BF8000002002000020FC
:1008FC00790200205848000884000020780200206B
:10090C006C48000884480008000000209848000843
:10091C00B448000818490008244900083049000868
:10092C003C49000848490008684900082003002099
:10093C0080B500AF194B1B780133002B03F001037A
:10094C00B8BF5B42DAB2154B1A70144B1B78002BF4
:10095C000CD0134B00221A701249134803F01EFBE3
:10096C0000222021114801F04DFB08E010490E48EF
:10097C0003F014FB012220210C4801F043FB0A4830
:10098C00FFF7ECFE03469AB20A230749094802F026
:10099C00C7FB054B00221A7000BF80BD020000206F
:1009AC0078020020044A000884000020000801405E
:1009BC00284A00082003002080B500AF054B1B78A7
:1009CC00002B02D000F008F801E000F03BF800BF6B
:1009DC0080BD00BF0200002080B500AF174B1B7814
:1009EC00012B15D0022B27D1154B1B78184600F084
:1009FC006BF8134B1B78022B06D8114B1B78013369
:100A0C00DAB20F4B1A7017E00D4B00221A7013E07C
:100A1C000B4B1B78184600F057F8094B1B78002B32
:100A2C0006D0074B1B78013BDAB2054B1A7002E07B
:100A3C00034B03221A7000BF00BF80BD7802002058
:100A4C007A02002080B500AF1C4B1B68002B32DDF6
:100A5C001B4B1B78012B15D0022B27D1194B1B7864
:100A6C00184600F031F8174B1B78022B06D8154BA3
:100A7C001B780133DAB2134B1A7017E0114B0022BA
:100A8C001A7013E00F4B1B78184600F01DF80D4B35
:100A9C001B78002B06D00B4B1B78013BDAB2094BB1
:100AAC001A7002E0074B03221A7000BF034B1B683D
:100ABC00013B024A136000BF80BD00BF7C020020D6
:100ACC00780200207A02002080B582B000AF034685
:100ADC00FB71FB79032B6BD801A252F823F000BFFA
:100AEC00FD0A00082D0B00085D0B00088D0B00089B
:100AFC0001224FF48051304801F084FA00224FF467
:100B0C0080612D4801F07EFA00224FF400612A48E2
:100B1C0001F078FA00220421284801F073FA47E02A
:100B2C0000224FF48051244801F06CFA01224FF45A
:100B3C008061214801F066FA00224FF400611E48E2
:100B4C0001F060FA002204211C4801F05BFA2FE04E
:100B5C0000224FF48051184801F054FA00224FF44F
:100B6C008061154801F04EFA01224FF400611248E1
:100B7C0001F048FA00220421104801F043FA17E072
:100B8C0000224FF480510C4801F03CFA00224FF443
:100B9C008061094801F036FA00224FF400610648E2
:100BAC0001F030FA01220421044801F02BFA00BFB5
:100BBC0000BF0837BD4680BD001001400014014045
:100BCC0080B584B000AF78607B68C3F104034FF448
:100BDC00347202FB03F3FB60294B1B78C3F1040353
:100BEC004FF4347202FB03F3BB60BA68FB689A42A1
:100BFC0014DDBA68FB68D31A1846FFF71DFD0246D0
:100C0C000B461046194600F06FF87A681D491E48CD
:100C1C0003F0C4F91D4B01221A701AE0FA68BB6884
:100C2C009A4214DDFA68BB68D31A1846FFF704FD24
:100C3C0002460B461046194600F02EF87A68114908
:100C4C00114803F0ABF9114B01221A7001E000239B
:100C5C0011E07B68DAB20E4B1A700B48FFF77EFD81
:100C6C0003469AB20A2308490A4802F059FA064B7D
:100C7C0000221A70052318461037BD4680BD00BFF0
:100C8C00000000204C4A00088400002003000020D3
:100C9C00010000202003002080B582B000AFC7E91E
:100CAC0000010E4B01221A704FF000020C4BD7E9D9
:100CBC000001FFF745FA02460B461046194603F0B1
:100CCC0073FD02460B4610461946FFF71FFD0346FF
:100CDC00044A136000BF0837BD4680BD780200206F
:100CEC00000014407C02002080B582B000AFC7E940
:100CFC0000010E4B02221A704FF000020C4BD7E988
:100D0C000001FFF71DFA02460B461046194603F088
:100D1C004BFD02460B4610461946FFF7F7FC0346FF
:100D2C00044A136000BF0837BD4680BD780200201E
:100D3C00000014407C02002080B582B000AF7860C7
:100D4C00254B1B78002B42D100F058F80346002BA2
:100D5C0002D000F063F83AE000F0F2F81F4B1B7879
:100D6C00002B1AD01D4B00221A701D4B1A781D4BEC
:100D7C001A701C4B1B781A461B491C4803F00EF9C1
:100D8C001A48FFF7EBFC03469AB20A231749184896
:100D9C0002F0C6F9154B00221A70164B1B78013362
:100DAC00DAB2144B1A70134B1A78134B1B789A4205
:100DBC000DD9104B00221A70786800F05DF90346CB
:100DCC001846FFF7FDFE03461A460B4B1A7000BF80
:100DDC000837BD4680BD00BF020000200300002084
:100DEC000100002000000020704A00088400002050
:100DFC0020030020800200200400002080B400AFFB
:100E0C00054B1B68002B14BF01230023DBB21846D3
:100E1C00BD4680BC704700BF7C02002080B500AF8F
:100E2C00444B1B78002B63D0434B1B78013B032BAB
:100E3C0072D801A252F823F0550E00087F0E00085C
:100E4C00A90E0008D30E0008012201213B4801F035
:100E5C00D9F800220221394801F0D4F800220421EB
:100E6C00364801F0CFF800220821344801F0CAF8C6
:100E7C0052E000220121314801F0C4F80122022184
:100E8C002E4801F0BFF8002204212C4801F0BAF8DA
:100E9C0000220821294801F0B5F83DE0002201218B
:100EAC00264801F0AFF800220221244801F0AAF8EC
:100EBC0001220421214801F0A5F8002208211F4835
:100ECC0001F0A0F828E0002201211C4801F09AF85A
:100EDC0000220221194801F095F80022042117483C
:100EEC0001F090F801220821144801F08BF813E06E
:100EFC0000220121114801F085F8002202210F483F
:100F0C0001F080F8002204210C4801F07BF800224B
:100F1C0008210A4801F076F8064B1B780133002BA8
:100F2C0003F00103B8BF5B42DAB2024B1A7000BF88
:100F3C0080BD00BF81020020010000200010014094
:100F4C0080B500AF324B1B78013B032B5ED801A25E
:100F5C0052F823F0710F00089B0F0008C50F000812
:100F6C00EF0F0008012201212A4801F04BF8002262
:100F7C000221284801F046F800220421254801F0FE
:100F8C0041F800220821234801F03CF83EE0002201
:100F9C000121204801F036F8012202211D4801F000
:100FAC0031F8002204211B4801F02CF80022082102
:100FBC00184801F027F829E000220121154801F01A
:100FCC0021F800220221134801F01CF8012204210F
:100FDC00104801F017F8002208210E4801F012F811
:100FEC0014E0002201210B4801F00CF80022022130
:100FFC00084801F007F800220421064801F002F825
:10100C0001220821034800F0FDFF00BF00BF80BD96
:10101C00010000200010014080B584B000AF786062
:10102C0039603B68FB60114B1B781A46FB68D31A7E
:10103C00002B05DAFB680E4A12789B1ABB6005E0A0
:10104C000B4B1B781A46FB68D31ABB6007F10803DD
:10105C0093E80600786800F04AF8064B1B680133E9
:10106C00044A136000BF1037BD4680BD000000204D
:10107C00010000208402002080B584B000AF7860AD
:10108C000B4B1B68002B0CD007F108037968184632
:10109C0000F071F8064B1B68013B054A1360FB68B6
:1010AC0001E0044B1B7818461037BD4680BD00BFCD
:1010BC00840200200000002080B500AF4FF4CA70FD
:1010CC0002F0B8FE0346184680BD80B582B000AF72
:1010DC0078604FF4CA720021786802F07FFF7B6859
:1010EC000022C3F8902100BF0837BD4680BD80B4F4
:1010FC0087B000AFF8603B1D83E80600FB68D3F8AF
:10110C0090315A1CFB68C3F89021FB68D3F89031DE
:10111C007B6114E07B69DA0F13445B101846FA68A4
:10112C007B69F968DB001344C2000A4492E80300AF
:10113C0083E803007B69DA0F13445B107B617B69E6
:10114C00012B0AD07A687B69D90F0B445B101946C6
:10115C00FB6853F831309A42DCDBFA687B69DB00C0
:10116C0013443A1D92E8030083E8030000BF1C37C8
:10117C00BD4680BC704780B489B000AF78603960E0
:10118C003A6807F11003083292E8030083E8030081
:10119C003B68D3F89031591E3A68C2F890113968FF
:1011AC0007F10802DB000B4493E8030082E803001C
:1011BC000123FB610223BB612BE03B68D3F8903128
:1011CC00BA699A420DDA3B68BA6953F83220BB69A6
:1011DC00591C3B6853F831309A4202DDBB6901332C
:1011EC00BB61BA683B68B96953F831309A4217DD74
:1011FC003868FB693968BA69DB000344D2000A44D9
:10120C0092E8030083E80300BB69FB61BB695B00E8
:10121C00BB613B68D3F89031BA699A42CDDD00E0EE
:10122C0000BF3A68FB69DB00134407F1080292E83F
:10123C00030083E803007B681A4607F1100393E868
:10124C00030082E8030078682437BD4680BC7047F1
:10125C0080B588B000AF07F1100300221A605A6005
:10126C009A60DA603B4B9B693A4A43F010039361F6
:10127C00384B9B6903F01003FB60FB68354B9B6993
:10128C00344A43F020039361324B9B6903F02003F3
:10129C00BB60BB682F4B9B692E4A43F004039361E0
:1012AC002C4B9B6903F004037B607B68002241F6A6
:1012BC000F41294800F0A6FE00222021274800F00B
:1012CC00A1FE00220421264800F09CFE4FF400539E
:1012DC003B61244B7B610023BB6107F11003194672
:1012EC001D4800F00BFD41F60F433B6101237B6170
:1012FC000023BB610223FB6107F11003194616485A
:10130C0000F0FCFC20233B6101237B610023BB61CB
:10131C000223FB6107F110031946104800F0EEFCA4
:10132C0004233B6101237B610023BB610223FB612E
:10133C0007F1100319460A4800F0E0FC00220021D6
:10134C00282000F0F2FB282000F00BFC00BF203717
:10135C00BD4680BD00100240001001400008014055
:10136C00001401400000211080B582B000AF7860FD
:10137C00044B1B6819467868FFF7F8F900BF08376B
:10138C00BD4680BD8802002080B582B000AF034608
:10139C00FB80FFF7CDFA00BF0837BD4680BD0000CB
:1013AC0080B582B000AF78607B681B68094A9342B5
:1013BC0001D1FFF701FB7B681B68B3F1804F04D1AF
:1013CC00054B1B681846FFF7B7FC00BF0837BD4636
:1013DC0080BD00BF002C01408802002080B59AB06F
:1013EC0000AF02F0C5FC00F043F8FFF731FF00F04E
:1013FC0045F900F093F900F01FFA002387F86730E5
:10140C0000233B603B1D60220021184602F0E6FDE4
:10141C0007F1670301221946104801F004FF104838
:10142C0001F0F0FA0F4801F0EDFA3B460E49184670
:10143C0002F0B4FD39460A236422084801F070FE1C
:10144C0000233B70FFF738FE0346084A1360074B36
:10145C001B681846FFF739FEFEE700BF200300208B
:10146C0090020020D8020020884A00088802002040
:10147C0080B590B000AF07F1180328220021184660
:10148C0002F0ACFD3B1D00221A605A609A60DA60D3
:10149C001A610123BB614FF48033FB6100233B6273
:1014AC000123BB6202237B634FF48033BB634FF495
:1014BC00E013FB6307F11803184600F0D3FD034655
:1014CC00002B01D000F019F80F237B600223BB60C6
:1014DC000023FB604FF480633B6100237B613B1D69
:1014EC000221184601F040F80346002B01D000F011
:1014FC0004F800BF4037BD4680BD80B400AF72B663
:10150C0000BFFEE780B485B000AF154B9B69144A51
:10151C0043F001039361124B9B6903F00103BB6021
:10152C00BB680F4BDB690E4A43F08053D3610C4B05
:10153C00DB6903F080537B607B680A4B5B68FB6064
:10154C00FB6823F0E063FB60FB6843F00073FB6017
:10155C00044AFB68536000BF1437BD4680BC70471B
:10156C00001002400000014080B400AFFEE780B4E0
:10157C0000AFFEE780B400AFFEE780B400AFFEE73B
:10158C0080B400AFFEE780B400AF00BFBD4680BCA6
:10159C00704780B400AF00BFBD4680BC704780B4BC
:1015AC0000AF00BFBD4680BC704780B500AF02F0F5
:1015BC0025FC00BF80BD000080B500AF024801F0E3
:1015CC0073FA00BF80BD00BF9002002080B500AF51
:1015DC00024801F069FA00BF80BD00BFD8020020AC
:1015EC0080B500AF024801F043FE00BF80BD00BFD4
:1015FC002003002080B500AF4FF4005000F01AFD1E
:10160C0000BF80BD80B586B000AF7860144A154B22
:10161C00D31A7B617B693B61134B1B68002B02D196
:10162C00114B124A1A60104B1A687B6813443A69C2
:10163C009A4207D202F0EAFC03460C221A604FF0E1
:10164C00FF3309E0084B1B68FB60074B1A687B688B
:10165C001344054A1360FB6818461837BD4680BD15
:10166C0000500020000400008C020020B804002070
:10167C0080B400AF00BFBD4680BC704780B586B05B
:10168C0000AF07F1080300221A605A609A60DA6012
:10169C003B4600221A605A601E4B1F4A1A601D4BB3
:1016AC0041F61F425A601B4B00229A60194B1822BC
:1016BC00DA60184B00221A61164B00225A61154B46
:1016CC0000229A61134801F04DF90346002B01D01A
:1016DC00FFF713FF4FF48053BB6007F10803194663
:1016EC000C4801F0E9FA0346002B01D0FFF705FF87
:1016FC0000233B6000237B603B461946054801F004
:10170C00C1F80346002B01D0FFF7F7FE00BF1837D6
:10171C00BD4680BD90020020002C014080B586B0F3
:10172C0000AF07F1080300221A605A609A60DA6071
:10173C003B4600221A605A601E4B4FF080421A60E2
:10174C001C4B48F69F425A601A4B00229A60194B68
:10175C0040F2CF72DA60174B00221A61154B00224F
:10176C009A61144801F0FEF80346002B01D0FFF7F4
:10177C00C4FE4FF48053BB6007F1080319460D48B3
:10178C0001F09AFA0346002B01D0FFF7B6FE0023B6
:10179C003B6000237B603B461946064801F072F81B
:1017AC000346002B01D0FFF7A8FE00BF1837BD463B
:1017BC0080BD00BFD802002080B584B000AF786037
:1017CC007B681B681A4A934214D11A4B9B69194ABD
:1017DC0043F400639361174B9B6903F40063FB6054
:1017EC00FB6800220021192000F09FF9192000F05D
:1017FC00B8F918E07B681B68B3F1804F13D10D4B1F
:10180C00DB690C4A43F00103D3610A4BDB6903F03B
:10181C000103BB60BB68002200211C2000F085F98D
:10182C001C2000F09EF900BF1037BD4680BD00BFE4
:10183C00002C01400010024080B500AF114B124A41
:10184C001A60104B4FF4E1325A600E4B00229A6032
:10185C000C4B0022DA600B4B00221A61094B0C2254
:10186C005A61084B00229A61064B0022DA61054846
:10187C0001F006FC0346002B01D0FFF73EFE00BF33
:10188C0080BD00BF200300200044004080B588B01C
:10189C0000AF786007F1100300221A605A609A605A
:1018AC00DA607B681B681F4A934237D11E4BDB6999
:1018BC001D4A43F40033D3611B4BDB6903F4003343
:1018CC00FB60FB68184B9B69174A43F00403936158
:1018DC00154B9B6903F00403BB60BB6804233B619D
:1018EC0002237B610323FB6107F1100319460F48A8
:1018FC0000F004FA08233B6100237B610023BB61E9
:10190C0007F110031946094800F0F8F900220021EC
:10191C00262000F00AF9262000F023F900BF20371A
:10192C00BD4680BD0044004000100240000801404C
:10193C00FFF79EFE0B480C490C4A002302E0D458DA
:10194C00C4500433C4188C42F9D3094A094C0023FF
:10195C0001E013600432A242FBD302F05DFBFFF7FF
:10196C003DFD70470000002064000020184B00086B
:10197C0064000020B4040020FEE7000080B485B0B1
:10198C0000AF78607B6803F00703FB600C4BDB68EF
:10199C00BB60BA684FF6FF031340BB60FB681A02CA
:1019AC00BB68134343F0BF6343F40033BB60044A8A
:1019BC00BB68D36000BF1437BD4680BC704700BF06
:1019CC0000ED00E080B400AF044BDB681B0A03F0B1
:1019DC0007031846BD4680BC704700BF00ED00E011
:1019EC0080B483B000AF0346FB7197F90730002B2E
:1019FC000BDBFB7903F01F02064997F907305B09F3
:101A0C00012000FA02F241F8232000BF0C37BD463A
:101A1C0080BC704700E100E080B483B000AF0346A7
:101A2C003960FB7197F90730002B0ADB3B68DAB29F
:101A3C000C4997F907301201D2B20B4483F80023FA
:101A4C000AE03B68DAB20849FB7903F00F03043B68
:101A5C001201D2B20B441A7600BF0C37BD4680BCC3
:101A6C00704700BF00E100E000ED00E080B489B0F9
:101A7C0000AFF860B9607A60FB6803F00703FB61A4
:101A8C00FB69C3F10703042B28BF0423BB61FB696B
:101A9C000433062B02D9FB69033B00E000237B6176
:101AAC004FF0FF32BB6902FA03F3DA43BB681A400A
:101ABC007B699A404FF0FF317B6901FA03F3D943FC
:101ACC007B680B40134318462437BD4680BC7047D7
:101ADC0080B582B000AF78607B68013BB3F1807F4A
:101AEC0001D301230FE00A4A7B68013B53600F21AD
:101AFC004FF0FF30FFF790FF054B00229A60044B2C
:101B0C0007221A60002318460837BD4680BD00BF67
:101B1C0010E000E080B582B000AF78607868FFF725
:101B2C002DFF00BF0837BD4680BD80B586B000AF25
:101B3C000346B9607A60FB7300237B61FFF742FFB9
:101B4C0078617A68B9687869FFF790FF024697F96F
:101B5C000F3011461846FFF75FFF00BF1837BD4620
:101B6C0080BD80B582B000AF0346FB7197F907309A
:101B7C001846FFF735FF00BF0837BD4680BD80B55E
:101B8C0082B000AF78607868FFF7A2FF0346184672
:101B9C000837BD4680BD80B485B000AF78600023A7
:101BAC00FB737B6893F82130DBB2022B08D07B6887
:101BBC0004229A637B68002283F82020012320E012
:101BCC007B681B681A687B681B6822F00E021A601F
:101BDC007B681B681A687B681B6822F001021A601C
:101BEC007B681A6C7B68DB6B012101FA02F25A608C
:101BFC007B68012283F821207B68002283F8202057
:101C0C00FB7B18461437BD4680BC704780B584B04A
:101C1C0000AF78600023FB737B6893F82130DBB254
:101C2C00022B05D07B6804229A630123FB7351E0DD
:101C3C007B681B681A687B681B6822F00E021A60AE
:101C4C007B681B681A687B681B6822F001021A60AB
:101C5C007B681B68224A934229D07B681B68214A07
:101C6C00934222D07B681B681F4A93421AD07B6830
:101C7C001B681E4A934212D07B681B681C4A934215
:101C8C000AD07B681B681B4A934202D14FF4801325
:101C9C000EE04FF080730BE04FF4803308E04FF40C
:101CAC00805305E04FF4807302E0102300E0012321
:101CBC00114A53607B68012283F821207B68002243
:101CCC0083F820207B685B6B002B03D07B685B6BFD
:101CDC0078689847FB7B18461037BD4680BD00BF1F
:101CEC00080002401C000240300002404400024048
:101CFC00580002406C0002400000024080B48BB0DF
:101D0C0000AF7860396000237B6200233B6269E19D
:101D1C0001227B6A02FA03F3FB613B681B68FA69D8
:101D2C001340BB61BA69FB699A4240F058813B6829
:101D3C005B689A4A93425ED0984A934275D8984A07
:101D4C00934258D0964A93426FD8964A934252D0B7
:101D5C00944A934269D8944A93424CD0924A934203
:101D6C0063D8924A934246D0904A93425DD8122B44
:101D7C002AD8122B59D801A252F823F0031E0008BE
:101D8C00DD1D0008EF1D0008311E0008371E00087D
:101D9C00371E0008371E0008371E0008371E0008C3
:101DAC00371E0008371E0008371E0008371E0008B3
:101DBC00371E0008371E0008371E0008371E0008A3
:101DCC00E51D0008F91D0008794A934213D02CE058
:101DDC003B68DB683B6229E03B68DB6804333B62B1
:101DEC0024E03B68DB6808333B621FE03B68DB6840
:101DFC000C333B621AE03B689B68002B02D1042336
:101E0C003B6213E03B689B68012B05D108233B62C6
:101E1C007B68FA691A6109E008233B627B68FA69FE
:101E2C005A6103E000233B6200E000BFBB69FF2B5B
:101E3C0001D87B6801E07B6804337B61BB69FF2BB5
:101E4C0002D87B6A9B0002E07B6A083B9B003B61EB
:101E5C007B691A680F213B6901FA03F3DB431A40D3
:101E6C00396A3B6901FA03F31A437B691A603B68D0
:101E7C005B6803F08053002B00F0B1804D4B9B69E5
:101E8C004C4A43F0010393614A4B9B6903F00103F5
:101E9C00BB60BB68484A7B6A9B08023352F823300C
:101EAC00FB607B6A03F003039B000F2202FA03F32F
:101EBC00DB43FA681340FB607B68404A934213D0C3
:101ECC007B683F4A93420DD07B683E4A934207D0D1
:101EDC007B683D4A934201D1032306E0042304E0CE
:101EEC00022302E0012300E000237A6A02F00302DD
:101EFC0092009340FA681343FB602F497B6A9B085E
:101F0C000233FA6841F823203B685B6803F48013C2
:101F1C00002B06D02D4B9A682C49BB6913438B6060
:101F2C0006E02A4B9A68BB69DB43284913408B6057
:101F3C003B685B6803F40013002B06D0234BDA6874
:101F4C002249BB691343CB6006E0204BDA68BB69BE
:101F5C00DB431E491340CB603B685B6803F40033E2
:101F6C00002B06D0194B5A681849BB6913434B60B8
:101F7C0006E0164B5A68BB69DB43144913404B60AF
:101F8C003B685B6803F48033002B21D00F4B1A683D
:101F9C000E49BB6913430B6021E000BF00003210F7
:101FAC00000031100000221000002110000012105F
:101FBC000000111000100240000001400008014018
:101FCC00000C0140001001400014014000040140CD
:101FDC000B4B1A68BB69DB43094913400B607B6AE6
:101FEC0001337B623B681A687B6A22FA03F3002B8D
:101FFC007FF48EAE00BF00BF2C37BD4680BC70474F
:10200C000004014080B483B000AF78600B467B8045
:10201C0013467B707B78002B03D07A887B681A611F
:10202C0003E07B881A047B681A6100BF0C37BD463D
:10203C0080BC704780B582B000AF0346FB80084B74
:10204C005A69FB881340002B06D0054AFB88536164
:10205C00FB881846FFF798F900BF0837BD4680BDCE
:10206C000004014080B586B000AF78607B68002B1F
:10207C0001D1012372E27B681B6803F00103002B82
:10208C0000F08780924B5B6803F00C03042B0CD0A0
:10209C008F4B5B6803F00C03082B12D18C4B5B68E5
:1020AC0003F48033B3F5803F0BD1894B1B6803F4E9
:1020BC000033002B6CD07B685B68002B68D101234C
:1020CC004CE27B685B68B3F5803F06D1804B1B68A4
:1020DC007F4A43F4803313602EE07B685B68002BEF
:1020EC000CD17B4B1B687A4A23F480331360784BFA
:1020FC001B68774A23F4802313601DE07B685B68C0
:10210C00B3F5A02F0CD1724B1B68714A43F480239A
:10211C0013606F4B1B686E4A43F4803313600BE003
:10212C006B4B1B686A4A23F480331360684B1B6843
:10213C00674A23F4802313607B685B68002B13D001
:10214C0001F06EFE386108E001F06AFE02463B6960
:10215C00D31A642B01D9032300E25D4B1B6803F4F3
:10216C000033002BF0D014E001F05AFE386108E087
:10217C0001F056FE02463B69D31A642B01D90323A6
:10218C00ECE1534B1B6803F40033002BF0D100E05F
:10219C0000BF7B681B6803F00203002B63D04C4B21
:1021AC005B6803F00C03002B0BD0494B5B6803F00E
:1021BC000C03082B1CD1464B5B6803F48033002BBB
:1021CC0016D1434B1B6803F00203002B05D07B6830
:1021DC001B69012B01D00123C0E13D4B1B6823F08F
:1021EC00F8027B685B69DB00394913430B603AE00A
:1021FC007B681B69002B20D0364B01221A6001F042
:10220C000FFE386108E001F00BFE02463B69D31A61
:10221C00022B01D90323A1E12D4B1B6803F0020310
:10222C00002BF0D02A4B1B6823F0F8027B685B690B
:10223C00DB00274913430B6015E0264B00221A6084
:10224C0001F0EEFD386108E001F0EAFD02463B6961
:10225C00D31A022B01D9032380E11D4B1B6803F019
:10226C000203002BF0D17B681B6803F00803002BE2
:10227C003AD07B689B69002B19D0174B01221A604E
:10228C0001F0CEFD386108E001F0CAFD02463B6961
:10229C00D31A022B01D9032360E10D4B5B6A03F0C7
:1022AC000203002BF0D0012000F0CEFA1CE00A4B08
:1022BC0000221A6001F0B4FD38610FE001F0B0FDAE
:1022CC0002463B69D31A022B08D9032346E100BF0F
:1022DC00001002400000424280044242924B5B6A72
:1022EC0003F00203002BE9D17B681B6803F00403A5
:1022FC00002B00F0A6800023FB758B4BDB6903F0F1
:10230C008053002B0DD1884BDB69874A43F08053F7
:10231C00D361854BDB6903F08053BB60BB68012341
:10232C00FB75824B1B6803F48073002B18D17F4B19
:10233C001B687E4A43F48073136001F071FD3861B1
:10234C0008E001F06DFD02463B69D31A642B01D9FC
:10235C00032303E1754B1B6803F48073002BF0D04F
:10236C007B68DB68012B06D16F4B1B6A6E4A43F00E
:10237C00010313622DE07B68DB68002B0CD16A4BE8
:10238C001B6A694A23F001031362674B1B6A664A96
:10239C0023F0040313621CE07B68DB68052B0CD173
:1023AC00614B1B6A604A43F0040313625E4B1B6A69
:1023BC005D4A43F0010313620BE05B4B1B6A5A4A04
:1023CC0023F001031362584B1B6A574A23F0040392
:1023DC0013627B68DB68002B15D001F021FD38619E
:1023EC000AE001F01DFD02463B69D31A41F2883226
:1023FC00934201D90323B1E04B4B1B6A03F0020358
:10240C00002BEED014E001F00BFD38610AE001F076
:10241C0007FD02463B69D31A41F28832934201D937
:10242C0003239BE0404B1B6A03F00203002BEED10D
:10243C00FB7D012B05D13C4BDB693B4A23F08053E0
:10244C00D3617B68DB69002B00F08780364B5B68BF
:10245C0003F00C03082B61D07B68DB69022B46D19F
:10246C00334B00221A6001F0DBFC386108E001F00C
:10247C00D7FC02463B69D31A022B01D903236DE02A
:10248C00294B1B6803F00073002BF0D17B681B6A8F
:10249C00B3F5803F08D1244B5B6823F400327B6892
:1024AC009B68214913434B601F4B5B6823F47412E8
:1024BC007B68196A7B685B6A0B431B4913434B604F
:1024CC001B4B01221A6001F0ABFC386108E001F0F3
:1024DC00A7FC02463B69D31A022B01D903233DE02A
:1024EC00114B1B6803F00073002BF0D035E0104B40
:1024FC0000221A6001F094FC386108E001F090FCB5
:10250C0002463B69D31A022B01D9032326E0064B62
:10251C001B6803F00073002BF0D11EE07B68DB69B5
:10252C00012B07D1012319E000100240007000407C
:10253C00600042420B4B5B68FB60FB6803F480322B
:10254C007B681B6A9A4206D1FB6803F470127B68A5
:10255C005B6A9A4201D0012300E000231846183729
:10256C00BD4680BD0010024080B584B000AF7860DD
:10257C0039607B68002B01D10123D0E06A4B1B68CA
:10258C0003F007033A689A4210D9674B1B6823F093
:10259C00070265493B6813430B60634B1B6803F0F0
:1025AC0007033A689A4201D00123B8E07B681B68A4
:1025BC0003F00203002B20D07B681B6803F004039C
:1025CC00002B05D0594B5B68584A43F4E0635360C9
:1025DC007B681B6803F00803002B05D0534B5B682A
:1025EC00524A43F460535360504B5B6823F0F00243
:1025FC007B689B684D4913434B607B681B6803F0F9
:10260C000103002B40D07B685B68012B07D1474B43
:10261C001B6803F40033002B15D101237FE07B688A
:10262C005B68022B07D1414B1B6803F00073002B36
:10263C0009D1012373E03D4B1B6803F00203002B0F
:10264C0001D101236BE0394B5B6823F003027B68FB
:10265C005B68364913434B6001F0E2FBF8600AE01B
:10266C0001F0DEFB0246FB68D31A41F2883293423A
:10267C0001D9032353E02D4B5B6803F00C027B68FC
:10268C005B689B009A42EBD1274B1B6803F0070356
:10269C003A689A4210D2244B1B6823F00702224955
:1026AC003B6813430B60204B1B6803F007033A682D
:1026BC009A4201D0012332E07B681B6803F00403CB
:1026CC00002B08D0194B5B6823F4E0627B68DB6855
:1026DC00164913434B607B681B6803F00803002BFF
:1026EC0009D0124B5B6823F460527B681B69DB00DA
:1026FC000E4913434B6000F021F802460B4B5B680C
:10270C001B0903F00F030A49CB5C22FA03F3094AB5
:10271C001360094B1B68184601F040FB0023184658
:10272C001037BD4680BD00BF0020024000100240A3
:10273C00B04A0008080000200C00002080B487B0CC
:10274C0000AF0023FB600023BB6000237B610023F0
:10275C007B6000233B611E4B5B68FB60FB6803F0F6
:10276C000C03042B02D0082B03D027E0194B3B6140
:10277C0027E0FB689B0C03F00F03174AD35C7B60CC
:10278C00FB6803F48033002B10D0114B5B685B0C9F
:10279C0003F00103114AD35CBB607B680D4A03FB59
:1027AC0002F2BB68B2FBF3F37B6104E07B680C4A7A
:1027BC0002FB03F37B617B693B6102E0054B3B61F0
:1027CC0000BF3B6918461C37BD4680BC704700BF34
:1027DC000010024000127A00C84A0008D84A0008CB
:1027EC0000093D0080B400AF024B1B681846BD4683
:1027FC0080BC70470800002080B500AFFFF7F2FFE7
:10280C000246054B5B681B0A03F007030349CB5CCC
:10281C0022FA03F3184680BD00100240C04A00089B
:10282C0080B500AFFFF7DEFF0246054B5B68DB0AA5
:10283C0003F007030349CB5C22FA03F3184680BD6F
:10284C0000100240C04A000880B485B000AF786028
:10285C000A4B1B680A4AA2FB03235B0A7A6802FB39
:10286C0003F3FB6000BFFB685A1EFA60002BF9D122
:10287C0000BF00BF1437BD4680BC70470800002065
:10288C00D34D621080B485B000AF786039607B683E
:10289C0093F83C30012B01D1022346E07B680122E6
:1028AC0083F83C207B68022283F83D207B681B6800
:1028BC005B68FB607B681B689B68BB60FB6823F0F4
:1028CC007003FB603B681B68FA681343FB607B6812
:1028DC001B68FA685A607B681B68164A93420ED0D4
:1028EC007B681B68B3F1804F09D07B681B68124A68
:1028FC00934204D07B681B68104A93420CD1BB688E
:10290C0023F08003BB603B685B68BA681343BB6011
:10291C007B681B68BA689A607B68012283F83D204B
:10292C007B68002283F83C20002318461437BD46F0
:10293C0080BC7047002C014000040040000800409F
:10294C0080B483B000AF786000BF0C37BD4680BC4C
:10295C00704780B483B000AF786000BF0C37BD46C1
:10296C0080BC704780B582B000AF78607B68002B6C
:10297C0001D1012341E07B6893F83D30DBB2002BA1
:10298C0006D17B68002283F83C207868FEF714FFA0
:10299C007B68022283F83D207B681A687B680433CD
:1029AC001946104600F074FA7B68012283F8462021
:1029BC007B68012283F83E207B68012283F83F204C
:1029CC007B68012283F840207B68012283F8412038
:1029DC007B68012283F842207B68012283F8432024
:1029EC007B68012283F844207B68012283F8452010
:1029FC007B68012283F83D20002318460837BD462A
:102A0C0080BD000080B485B000AF78607B6893F81F
:102A1C003D30DBB2012B01D001233AE07B6802226E
:102A2C0083F83D207B681B68DA687B681B6842F082
:102A3C000102DA607B681B68184A93420ED07B68EF
:102A4C001B68B3F1804F09D07B681B68144A934212
:102A5C0004D07B681B68134A934211D17B681B68B6
:102A6C009B6803F00703FB60FB68062B10D07B68A8
:102A7C001B681A687B681B6842F001021A6007E049
:102A8C007B681B681A687B681B6842F001021A603D
:102A9C00002318461437BD4680BC7047002C0140FB
:102AAC00000400400008004080B582B000AF7860A0
:102ABC007B681B681B6903F00203022B22D17B6825
:102ACC001B68DB6803F00203022B1BD17B681B68BD
:102ADC006FF002021A617B6801221A777B681B680F
:102AEC009B6903F00303002B03D0786800F0B4F962
:102AFC0005E0786800F0A7F9786800F0B6F97B6813
:102B0C0000221A777B681B681B6903F00403042BF3
:102B1C0022D17B681B68DB6803F00403042B1BD1F8
:102B2C007B681B686FF004021A617B6802221A77BB
:102B3C007B681B689B6903F44073002B03D0786897
:102B4C0000F08AF905E0786800F07DF9786800F00B
:102B5C008CF97B6800221A777B681B681B6903F071
:102B6C000803082B22D17B681B68DB6803F0080381
:102B7C00082B1BD17B681B686FF008021A617B68FD
:102B8C0004221A777B681B68DB6903F00303002BB4
:102B9C0003D0786800F060F905E0786800F053F92C
:102BAC00786800F062F97B6800221A777B681B68F2
:102BBC001B6903F01003102B22D17B681B68DB68A8
:102BCC0003F01003102B1BD17B681B686FF01002F5
:102BDC001A617B6808221A777B681B68DB6903F42F
:102BEC004073002B03D0786800F036F905E0786864
:102BFC0000F029F9786800F038F97B6800221A7720
:102C0C007B681B681B6903F00103012B0ED17B68E9
:102C1C001B68DB6803F00103012B07D17B681B6881
:102C2C006FF001021A617868FEF7BAFB7B681B68CB
:102C3C001B6903F08003802B0ED17B681B68DB685B
:102C4C0003F08003802B07D17B681B686FF0800238
:102C5C001A617868FFF77DFE7B681B681B6903F0BF
:102C6C004003402B0ED17B681B68DB6803F04003EC
:102C7C00402B07D17B681B686FF040021A617868A3
:102C8C0000F0FCF87B681B681B6903F02003202B09
:102C9C000ED17B681B68DB6803F02003202B07D167
:102CAC007B681B686FF020021A617868FFF748FE9A
:102CBC0000BF0837BD4680BD80B584B000AF7860DA
:102CCC0039600023FB737B6893F83C30012B01D1F6
:102CDC000223B4E07B68012283F83C207B6802224B
:102CEC0083F83D207B681B689B68BB60BB6823F046
:102CFC007703BB60BB6823F47F43BB607B681B68B6
:102D0C00BA689A603B681B68B3F5005F3ED0B3F5B8
:102D1C00005F00F28780B3F5805F00F08680B3F52A
:102D2C00805F7FD8702B1AD0702B7BD8602B50D043
:102D3C00602B77D8502B3CD0502B73D8402B58D0CD
:102D4C00402B6FD8302B64D0302B6BD8202B60D01D
:102D5C00202B67D8002B5CD0102B5AD062E07B68FC
:102D6C0018683B6899683B685A683B68DB6800F0F8
:102D7C0068F97B681B689B68BB60BB6843F0770392
:102D8C00BB607B681B68BA689A604FE07B68186808
:102D9C003B6899683B685A683B68DB6800F051F9FE
:102DAC007B681B689A687B681B6842F480429A6057
:102DBC003CE07B6818683B6859683B68DB681A46DE
:102DCC0000F0C8F87B681B685021184600F01FF90A
:102DDC002CE07B6818683B6859683B68DB681A46CE
:102DEC0000F0E6F87B681B686021184600F00FF9CC
:102DFC001CE07B6818683B6859683B68DB681A46BE
:102E0C0000F0A8F87B681B684021184600F0FFF81A
:102E1C000CE07B681A683B681B681946104600F08A
:102E2C00F6F803E00123FB7300E000BF7B6801228E
:102E3C0083F83D207B68002283F83C20FB7B1846FE
:102E4C001037BD4680BD80B483B000AF786000BF42
:102E5C000C37BD4680BC704780B483B000AF78603F
:102E6C0000BF0C37BD4680BC704780B483B000AF48
:102E7C00786000BF0C37BD4680BC704780B483B00F
:102E8C0000AF786000BF0C37BD4680BC70470000B7
:102E9C0080B485B000AF786039607B681B68FB60DC
:102EAC007B68294A93420BD07B68B3F1804F07D0E3
:102EBC007B68264A934203D07B68254A934208D10B
:102ECC00FB6823F07003FB603B685B68FA68134394
:102EDC00FB607B681C4A93420BD07B68B3F1804F3C
:102EEC0007D07B68194A934203D07B68184A9342F7
:102EFC0008D1FB6823F44073FB603B68DB68FA681D
:102F0C001343FB60FB6823F080023B685B6913434F
:102F1C00FB607B68FA681A603B689A687B68DA62C7
:102F2C003B681A687B689A627B68074A934203D1B4
:102F3C003B681A697B681A637B6801225A6100BF7F
:102F4C001437BD4680BC7047002C01400004004083
:102F5C000008004080B487B000AFF860B9607A60B8
:102F6C00FB681B6A7B61FB681B6A23F00102FB6830
:102F7C001A62FB689B693B613B6923F0F0033B6180
:102F8C007B681B013A6913433B617B6923F00A039D
:102F9C007B617A69BB6813437B61FB683A699A6110
:102FAC00FB687A691A6200BF1C37BD4680BC70474B
:102FBC0080B487B000AFF860B9607A60FB681B6AB8
:102FCC007B61FB681B6A23F01002FB681A62FB68CA
:102FDC009B693B613B6923F470433B617B681B033A
:102FEC003A6913433B617B6923F0A0037B61BB68A7
:102FFC001B017A6913437B61FB683A699A61FB6830
:10300C007A691A6200BF1C37BD4680BC704780B419
:10301C0085B000AF786039607B689B68FB60FB68AB
:10302C0023F07003FB603A68FB68134343F007031B
:10303C00FB607B68FA689A6000BF1437BD4680BCA1
:10304C00704780B487B000AFF860B9607A603B60BD
:10305C00FB689B687B617B6923F47F437B613B68E6
:10306C001A027B681A43BB6813437A6913437B616A
:10307C00FB687A699A6000BF1C37BD4680BC7047FC
:10308C0080B582B000AF78607B68002B01D1012342
:10309C0042E07B6893F84130DBB2002B06D17B68B1
:1030AC00002283F840207868FEF7F0FB7B6824222E
:1030BC0083F841207B681B68DA687B681B6822F404
:1030CC000052DA60786800F0C5FD7B681B681A69ED
:1030DC007B681B6822F490421A617B681B685A69F2
:1030EC007B681B6822F02A025A617B681B68DA68CD
:1030FC007B681B6842F40052DA607B6800225A64D9
:10310C007B68202283F841207B68202283F84220B0
:10311C007B6800225A63002318460837BD4680BDE1
:10312C0080B58AB002AFF860B9603B601346FB8093
:10313C0000237B61FB6893F84130DBB2202B6DD10F
:10314C00BB68002B02D0FB88002B01D1012366E069
:10315C00FB6800225A64FB68212283F8412000F0AE
:10316C005FFE7861FB68FA889A84FB68FA88DA84D7
:10317C00FB689B68B3F5805F08D1FB681B69002B6B
:10318C0004D10023FB61BB68BB6103E0BB68FB613E
:10319C000023BB612AE03B6800937B6900228021FD
:1031AC00F86800F014FB0346002B01D0032336E033
:1031BC00FB69002B0BD1BB691B881A46FB681B688B
:1031CC00C2F308025A60BB690233BB6107E0FB69BA
:1031DC001A78FB681B685A60FB690133FB61FB685A
:1031EC00DB8C9BB2013B9AB2FB68DA84FB68DB8C0C
:1031FC009BB2002BCFD13B6800937B69002240210E
:10320C00F86800F0E4FA0346002B01D0032306E033
:10321C00FB68202283F84120002300E0022318469B
:10322C002037BD4680BD80B584B000AFF860B96072
:10323C001346FB80FB6893F84230DBB2202B12D193
:10324C00BB68002B02D0FB88002B01D101230BE0C3
:10325C00FB6800221A63FB881A46B968F86800F00C
:10326C0024FB034600E0022318461037BD4680BD00
:10327C0080B5BAB000AF78607B681B681B68C7F874
:10328C00E4307B681B68DB68C7F8E0307B681B6840
:10329C005B69C7F8DC300023C7F8D8300023C7F8C7
:1032AC00D430D7F8E43003F00F03C7F8D830D7F890
:1032BC00D830002B0FD1D7F8E43003F02003002BCB
:1032CC0009D0D7F8E03003F02003002B03D0786846
:1032DC0000F001FC5BE2D7F8D830002B00F0DE8068
:1032EC00D7F8DC3003F00103002B06D1D7F8E0301F
:1032FC0003F49073002B00F0D180D7F8E43003F086
:10330C000103002B0BD0D7F8E03003F48073002BB3
:10331C0005D07B685B6C43F001027B685A64D7F87C
:10332C00E43003F00403002B0BD0D7F8DC3003F0AF
:10333C000103002B05D07B685B6C43F002027B68B9
:10334C005A64D7F8E43003F00203002B0BD0D7F803
:10335C00DC3003F00103002B05D07B685B6C43F081
:10336C0004027B685A64D7F8E43003F00803002B9E
:10337C0011D0D7F8E03003F02003002B05D1D7F89B
:10338C00DC3003F00103002B05D07B685B6C43F051
:10339C0008027B685A647B685B6C002B00F0F2813E
:1033AC00D7F8E43003F02003002B08D0D7F8E03036
:1033BC0003F02003002B02D0786800F08CFB7B68B4
:1033CC001B685B6903F04003002B14BF012300232F
:1033DC00DBB2C7F8D4307B685B6C03F00803002BBE
:1033EC0003D1D7F8D430002B4FD0786800F096FA80
:1033FC007B681B685B6903F04003002B41D07B6842
:10340C001B681433C7F89C30D7F89C3053E8003F46
:10341C00C7F89830D7F8983023F04003C7F8D0306D
:10342C007B681B681433D7F8D020C7F8A820C7F8DE
:10343C00A430D7F8A410D7F8A82041E80023C7F887
:10344C00A030D7F8A030002BD9D17B68DB6B002BD8
:10345C0013D07B68DB6B7E4A5A637B68DB6B184648
:10346C00FEF7D4FB0346002B16D07B68DB6B5B6B43
:10347C007A68D26B104698470EE0786800F093F9A2
:10348C000AE0786800F08FF906E0786800F08BF9B4
:10349C007B6800225A6475E100BF73E17B681B6B8B
:1034AC00012B40F04F81D7F8E43003F01003002BD0
:1034BC0000F04881D7F8E03003F01003002B00F047
:1034CC0041810023BB607B681B681B68BB607B6809
:1034DC001B685B68BB60BB687B681B685B6903F03F
:1034EC004003002B00F0B6807B68DB6B1B685B68CD
:1034FC00A7F8BE30B7F8BE30002B00F045817B68D2
:10350C009B8DB7F8BE209A4280F03E817B68B7F85D
:10351C00BE20DA857B68DB6B9B69202B00F08880F2
:10352C007B681B680C33C7F88830D7F8883053E8B1
:10353C00003FC7F88430D7F8843023F48073C7F881
:10354C00B8307B681B680C33D7F8B820C7F89420C8
:10355C00C7F89030D7F89010D7F8942041E80023A2
:10356C00C7F88C30D7F88C30002BD9D17B681B680E
:10357C0014337B677B6F53E8003F3B673B6F23F053
:10358C000103C7F8B4307B681B681433D7F8B42038
:10359C00C7F88020FB67F96FD7F8802041E800233B
:1035AC00BB67BB6F002BE1D17B681B6814333B6698
:1035BC003B6E53E8003FFB65FB6D23F04003C7F8FF
:1035CC00B0307B681B681433D7F8B020FA66BB6642
:1035DC00B96EFA6E41E800237B667B6E002BE3D15B
:1035EC007B68202283F842207B6800221A637B6868
:1035FC001B680C33FB64FB6C53E8003FBB64BB6C77
:10360C0023F01003C7F8AC307B681B680C33D7F879
:10361C00AC20BA657B65796DBA6D41E800233B65DA
:10362C003B6D002BE3D17B68DB6B1846FEF7B3FADE
:10363C007B6802225A637B689A8D7B68DB8D9BB218
:10364C00D31A9BB21946786800F0B6F89CE000BF1C
:10365C00ED3900087B689A8D7B68DB8D9BB2D31AA1
:10366C00A7F8CE307B68DB8D9BB2002B00F08E80F0
:10367C00B7F8CE30002B00F089807B681B680C33C8
:10368C00BB63BB6B53E8003F7B637B6B23F4907392
:10369C00C7F8C8307B681B680C33D7F8C8207A642D
:1036AC003B64396C7A6C41E80023FB63FB6B002BA9
:1036BC00E3D17B681B6814337B627B6A53E8003F61
:1036CC003B623B6A23F00103C7F8C4307B681B687C
:1036DC001433D7F8C4203A63FB62F96A3A6B41E8B9
:1036EC000023BB62BB6A002BE3D17B68202283F8EA
:1036FC0042207B6800221A637B681B680C333B6199
:10370C003B6953E8003FFB60FB6823F01003C7F8EC
:10371C00C0307B681B680C33D7F8C020FA61BB61E2
:10372C00B969FA6941E800237B617B69002BE3D11D
:10373C007B6802225A63B7F8CE301946786800F0DD
:10374C003BF823E0D7F8E43003F08003002B09D0DA
:10375C00D7F8E03003F08003002B03D0786800F03A
:10376C0053F914E0D7F8E43003F04003002B0ED0EB
:10377C00D7F8E03003F04003002B08D0786800F055
:10378C0092F904E000BF02E000BF00E000BFE837A0
:10379C00BD4680BD80B483B000AF786000BF0C37ED
:1037AC00BD4680BC704780B483B000AF786000BF6A
:1037BC000C37BD4680BC704780B483B000AF7860D6
:1037CC000B467B8000BF0C37BD4680BC704780B574
:1037DC0090B000AFF860B9603B601346FB7150E0ED
:1037EC00BB6CB3F1FF3F4CD0BB6C002B07D000F08F
:1037FC0017FB02463B68D31ABA6C9A4241D2FB685B
:10380C001B680C33BB62BB6A53E8003F7B627B6A6C
:10381C0023F4D073FB63FB681B680C33FA6B7A637D
:10382C003B63396B7A6B41E80023FB62FB6A002B2C
:10383C00E5D1FB681B6814337B617B6953E8003F5F
:10384C003B613B6923F00103BB63FB681B681433CA
:10385C00BA6B3A62FB61F9693A6A41E80023BB61D1
:10386C00BB69002BE5D1FB68202283F84120FB6863
:10387C00202283F84220FB68002283F84020032397
:10388C000FE0FB681B681A68BB681340BA689A4261
:10389C000CBF01230023DBB21A46FB799A429FD05E
:1038AC00002318464037BD4680BD80B485B000AFBC
:1038BC00F860B9601346FB80FB68BA689A62FB68D3
:1038CC00FA889A85FB68FA88DA85FB6800225A64C4
:1038DC00FB68222283F84220FB681B69002B07D06F
:1038EC00FB681B68DA68FB681B6842F48072DA605C
:1038FC00FB681B685A69FB681B6842F001025A613D
:10390C00FB681B68DA68FB681B6842F02002DA600F
:10391C00002318461437BD4680BC704780B495B060
:10392C0000AF78607B681B680C337B637B6B53E860
:10393C00003F3B633B6B23F49073FB647B681B6819
:10394C000C33FA6C3A64FB63F96B3A6C41E8002374
:10395C00BB63BB6B002BE5D17B681B6814333B62EC
:10396C003B6A53E8003FFB61FB6923F00103BB6436
:10397C007B681B681433BA6CFA62BB62B96AFA6A68
:10398C0041E800237B627B6A002BE5D17B681B6BD3
:10399C00012B19D17B681B680C33FB60FB6853E867
:1039AC00003FBB60BB6823F010037B647B681B6823
:1039BC000C337A6CBA617B617969BA6941E800238E
:1039CC003B613B69002BE5D17B68202283F84220C8
:1039DC007B6800221A6300BF5437BD4680BC704719
:1039EC0080B584B000AF78607B685B6AFB60FB6875
:1039FC000022DA85FB680022DA84F868FFF7D3FE30
:103A0C0000BF1037BD4680BD80B485B000AF786074
:103A1C007B6893F84130DBB2212B3ED17B689B68ED
:103A2C00B3F5805F14D17B681B69002B10D17B68C8
:103A3C001B6AFB60FB681B881A467B681B68C2F319
:103A4C0008025A607B681B6A9A1C7B681A6208E041
:103A5C007B681B6A591C7A6811621A787B681B6830
:103A6C005A607B68DB8C9BB2013B9BB27A6819462F
:103A7C00D184002B0FD17B681B68DA687B681B68CC
:103A8C0022F08002DA607B681B68DA687B681B684E
:103A9C0042F04002DA60002300E00223184614379B
:103AAC00BD4680BC704780B582B000AF78607B6843
:103ABC001B68DA687B681B6822F04002DA607B685E
:103ACC00202283F841207868FFF764FE0023184613
:103ADC000837BD4680BD80B58CB000AF78607B6880
:103AEC0093F84230DBB2222B40F0AE807B689B68AF
:103AFC00B3F5805F17D17B681B69002B13D10023B2
:103B0C00FB627B689B6ABB627B681B685B689BB2D1
:103B1C00C3F308039AB2BB6A1A807B689B6A9A1C2F
:103B2C007B689A6226E07B689B6AFB620023BB621F
:103B3C007B689B68B3F5805F07D07B689B68002B24
:103B4C000AD17B681B69002B06D17B681B685B68FC
:103B5C00DAB2FB6A1A7008E07B681B685B68DBB240
:103B6C0003F07F03DAB2FB6A1A707B689B6A5A1CFB
:103B7C007B689A627B68DB8D9BB2013B9BB27A6857
:103B8C001946D185002B5DD17B681B68DA687B6890
:103B9C001B6822F02002DA607B681B68DA687B689D
:103BAC001B6822F48072DA607B681B685A697B6838
:103BBC001B6822F001025A617B68202283F84220A4
:103BCC007B6800225A637B681B6B012B35D17B68A9
:103BDC0000221A637B681B680C337B617B6953E89A
:103BEC00003F3B613B6923F010037B627B681B68E1
:103BFC000C337A6A3A62FB61F9693A6A41E800234C
:103C0C00BB61BB69002BE5D17B681B681B6803F0AB
:103C1C001003102B0AD10023FB607B681B681B6808
:103C2C00FB607B681B685B68FB60FB687B689B8D3B
:103C3C0019467868FFF7C0FD02E07868FDF794FB41
:103C4C00002302E0002300E0022318463037BD4673
:103C5C0080BD000080B584B000AF78607B681B68C5
:103C6C001B6923F440517B68DA687B681B680A4344
:103C7C001A617B689A687B681B691A437B685B696D
:103C8C001343BB607B681B68DB6823F4B05323F0E1
:103C9C000C037A681268B9680B43D3607B681B68A5
:103CAC005B6923F440717B689A697B681B680A43E3
:103CBC005A617B681B682C4A934203D1FEF7B0FD16
:103CCC00F86002E0FEF798FDF860FA6813469B0076
:103CDC0013449A001A447B685B689B00B2FBF3F3B5
:103CEC00224AA2FB03235B091901FA6813469B00C5
:103CFC0013449A001A447B685B689B00B2FBF3F296
:103D0C001A4BA3FB02035B09642000FB03F3D31AD9
:103D1C001B013233154AA2FB03235B0903F0F003AA
:103D2C001944FA6813469B0013449A001A447B68A2
:103D3C005B689B00B2FBF3F20C4BA3FB02035B0929
:103D4C00642000FB03F3D31A1B013233074AA2FB96
:103D5C0003235B0903F00F027B681B680A449A601B
:103D6C0000BF1037BD4680BD003801401F85EB51A8
:103D7C0080B500AF084B1B68074A43F01003136073
:103D8C000320FDF7C7FE0F2000F008F8FDF7BAFB83
:103D9C000023184680BD00BF0020024080B582B0D1
:103DAC0000AF7860124B1A68124B1B7819464FF40F
:103DBC007A73B3FBF1F3B2FBF3F31846FDF7DFFEB6
:103DCC000346002B01D001230EE07B680F2B0AD891
:103DDC00002279684FF0FF30FDF7A7FE064A7B689A
:103DEC001360002300E0012318460837BD4680BD50
:103DFC0008000020100000200C00002080B400AF50
:103E0C00054B1B781A46054B1B681344034A136079
:103E1C0000BFBD4680BC7047100000206803002026
:103E2C0080B400AF024B1B681846BD4680BC70477F
:103E3C0068030020024B0146186800F023B800BF4D
:103E4C006000002070B50E4E0C463168054611B965
:103E5C0000F0CCF830602146284600F0C7F8431C2F
:103E6C000AD0C41C24F00304A04207D0211A28460F
:103E7C0000F0BCF8013001D14FF0FF34204670BD8A
:103E8C00700300202DE9F843CD1C25F003050835FF
:103E9C000C2D38BF0C25002D074601DBA94205D996
:103EAC000C2300263B603046BDE8F883DFF8D08059
:103EBC0000F068F8D8F800301C465CBB2946384640
:103ECC00FFF7C0FF431C044655D1D8F800402646E6
:103EDC00002E45D1002C48D023683146384604EBDF
:103EEC00030900F083F881453FD1216838466D1AEB
:103EFC002946FFF7A7FF013037D023682B442360F6
:103F0C00D8F80030002B38D05A68A2422BD10022AE
:103F1C005A600FE02268521B1FD40B2A17D9611963
:103F2C00A342256018BF5960636808BFC8F8001029
:103F3C0062514B60384604F10B0600F029F826F06C
:103F4C000706231DF21AAED09B1BA350ABE7A3426E
:103F5C006268DDD1C8F80020ECE723466468ACE762
:103F6C0034467668B4E71346CCE70C2338463B60FE
:103F7C0000F00EF897E72560DCE75B60FFDE00BF22
:103F8C006C030020014800F06BB800BFB0040020A7
:103F9C00014800F066B800BFB00400200EB46FF00A
:103FAC00004100B59CB01DAB0290069007910491A6
:103FBC000848094953F8042B0591006802A901939C
:103FCC0000F0F2F80022029B1A701CB05DF804EBB2
:103FDC0003B07047600000200802FFFF0346024454
:103FEC00934200D1704703F8011BF9E738B5002361
:103FFC00054D044608462B60FDF704FB431C02D11B
:10400C002B6803B1236038BDAC040020014B186849
:10401C00704700BF6000002070B500260C4D0D4CA1
:10402C00641BA410A64209D100F004FC00260A4D22
:10403C000A4C641BA410A64205D170BD55F8043B74
:10404C0098470136EEE755F8043B98470136F2E7FE
:10405C00104B0008104B0008104B0008144B0008C4
:10406C007047704738B50546002940D051F8043CDC
:10407C000C1F002BB8BFE418FFF784FF1C4A136811
:10408C0033B9636014602846BDE83840FFF780BF41
:10409C00A34208D9206821188B4201BF19685B68BC
:1040AC0009182160EDE71A465B680BB1A342FAD9F7
:1040BC0011685018A0420BD120680144501883425B
:1040CC001160E0D118685B68084410605360DAE74F
:1040DC0002D90C232B60D6E7206821188B4201BF34
:1040EC0019685B680918216063605460CBE738BDC0
:1040FC006C0300202DE9F0471F468E688246BE42B5
:10410C000C4690460B682CD88A8912F4906F26D0F6
:10411C006569096905EB4505A3EB010905EBD57547
:10412C007B1C4B446D109D4238BF1D46530527D553
:10413C002946FFF7A7FE064660B34A46216900F000
:10414C00EDFAA38923F4906343F08003A3812661E5
:10415C004E4426603E466561A5EB0905A560BE424E
:10416C0000D93E4632464146206800F0AFFA0020A6
:10417C00A3689B1BA360236833442360BDE8F087CE
:10418C002A4600F0D9FA06460028E0D150462169AB
:10419C00FFF768FF0C23CAF80030A3894FF0FF30FB
:1041AC0043F04003A381E9E72DE9F04F98468B8952
:1041BC0007461B060D4614469DB00ED50B6963B918
:1041CC004021FFF75FFE2860286120B90C233B607B
:1041DC004FF0FF30D0E040236B6100230993202384
:1041EC008DF8293030234FF00109CDF80C80DFF821
:1041FC00A0818DF82A3023469A4613F8012B0AB178
:10420C00252AF9D1BAEB040B0BD05B462246294682
:10421C003846FFF76FFF013000F0A980099A5A4425
:10422C0009929AF80030002B00F0A18000234FF087
:10423C00FF32CDE905230AF1010A049307938DF8A7
:10424C0053301A935446052214F8011B504800F0C1
:10425C0057FA049AD8B9D00644BF20238DF85330AE
:10426C00110744BF2B238DF853309AF800302A2BBA
:10427C0015D0544600204FF00A0C079A214611F82D
:10428C00013B303B092B4DD9B0B1079214E0A0EBA8
:10429C00080309FA03F31343A2460493D2E7039BE2
:1042AC00191D1B680391002BBBBF5B4242F002023D
:1042BC0007930793B8BF049223782E2B0CD1637805
:1042CC002A2B34D1039B02341A1D1B680392002B3A
:1042DC00B8BF4FF0FF330593DFF8B8A00322504668
:1042EC00217800F00DFA38B14022049BA0EB0A00B3
:1042FC00824013430134049314F8011B0622264810
:10430C008DF8281000F0FCF9002838D0234B1BBB8B
:10431C00039B073323F0070308330393099B3344B0
:10432C00099368E70C4601200CFB0232A6E7002338
:10433C004FF00A0C194601340593204610F8012B56
:10434C00303A092A03D9002BC6D00591C4E704469C
:10435C0001230CFB0121F0E703AB00932A463846FE
:10436C000F4B04A9AFF30080421C0646D6D1AB8993
:10437C005B063FF52DAF09981DB0BDE8F08F03AB80
:10438C0000932A463846064B04A900F07DF8EBE76B
:10439C00DA4A0008E04A0008E44A0008000000007D
:1043AC00014100082DE9F047164699468A680B69C9
:1043BC0007469342B8BF1346336091F843200C462E
:1043CC00DDF820800AB1013333602368990642BFBF
:1043DC00336802333360256815F0060506D104F105
:1043EC00190AE36832689B1AAB422BDC94F8432021
:1043FC00131E226818BF0123920630D44946384652
:10440C0004F14302C047013023D02368226903F032
:10441C000603042B14BF002533684FF0000608BFB9
:10442C00E56804F11A0408BFED1A54F8123C08BFF1
:10443C0025EAE5759342C4BF9B1AED18B5421AD113
:10444C00002008E00123524649463846C047013057
:10445C0003D14FF0FF30BDE8F0870135C1E73020C4
:10446C00E11881F843005A1C94F845102244023399
:10447C0082F84310C2E70123224649463846C0471A
:10448C000130E6D00136D9E72DE9FF470F7E914682
:10449C00782F80460C469A460C9D01F1430207D8B2
:1044AC00622F0AD8002F00F0D580582F00F0C18061
:1044BC0004F1420584F842703AE0A7F16303152B2E
:1044CC00F6D801A151F823F02D450008414500080C
:1044DC00BD440008BD440008BD440008BD440008AC
:1044EC0041450008BD440008BD440008BD44000817
:1044FC00BD440008474600086D4500080146000809
:10450C00BD440008BD44000869460008BD440008CD
:10451C006D450008BD440008BD440008094600086C
:10452C002B681A1D1B682A6004F1420584F842307E
:10453C000123A0E020682B68070603F10401296021
:10454C0001D51E6803E04606FBD5B3F90060002ECA
:10455C0003DA2D23764284F843300A23594812E0BB
:10456C002B682068191D2960050601D51E6802E01C
:10457C004106FBD51E886F2F0CBF08230A23514818
:10458C00002184F843106568002DA8BF2168A56040
:10459C00A4BF21F0040121600EB9002D4BD01546AB
:1045AC00B6FBF3F103FB1167C75D05F8017D3746D8
:1045BC00BB420E46F4D9082B0BD12368DE0708D575
:1045CC00236961689942DEBF302305F8013C05F18F
:1045DC00FF35521B22614B4621464046CDF800A0C8
:1045EC0003AAFFF7DFFE01304AD14FF0FF3004B0D1
:1045FC00BDE8F087236843F0200323607827324816
:10460C0084F84570236829681F0651F8046B02D49E
:10461C005F0648BFB6B2DF0748BF43F020032960EE
:10462C0048BF23601EB9236823F0200323601023A6
:10463C00A6E72448E4E71546BDE72B682668181D55
:10464C006169286035061B6801D5196002E07006A7
:10465C00FBD51980002315462361BCE72B6800218C
:10466C001A1D2A601D686268284600F049F808B1D6
:10467C00401B606063682361002384F84330AAE721
:10468C002A46494640462369D0470130ADD02368BD
:10469C009B0713D4E068039B9842B8BF1846A6E763
:1046AC000123324649464046D04701309DD0013562
:1046BC00E36803995B1AAB42F2DCEBE7002504F1EB
:1046CC001906F5E7EB4A0008FC4A0008884210B5C9
:1046DC0001EB020402D98442234607D8431EA142AF
:1046EC0008D011F8012B03F8012FF8E7014602441A
:1046FC008A4200D110BD13F8014D02F8014DF7E7C5
:10470C00034610B5C9B202449342184601D10020A9
:10471C0003E0047801338C42F6D110BD0A44914277
:10472C0000F1FF3300D1704710B511F8014B9142E5
:10473C0003F8014FF9D110BD2DE9F0418046144624
:10474C000E4621B91146BDE8F041FFF79BBB2AB9D3
:10475C00FFF788FC25462846BDE8F08100F01BF8E1
:10476C008442074602D8B4EB500F12D8214640467B
:10477C00FFF788FB05460028EDD0BC4222463146A7
:10478C0028BF3A46FFF7CAFF31464046FFF76AFC9E
:10479C00E1E73546DFE751F8043C181F002BBCBF9E
:1047AC000B58C01870470000F8B5C1F30A57A7F2B0
:1047BC00FF32132A0B4605460C4618DC002A09DA90
:1047CC00013201F0004303D143F07F5343F4401313
:1047DC00002229E0164810410140294311D04FF422
:1047EC00002141FA02F2134423EA0003F0E7332AD2
:1047FC000ADDB2F5806F04D10246FBF7D1FD054608
:10480C000C4628462146F8BD4FF0FF30A7F213475F
:10481C00F8402842F5D0C2F1330101228A405219E6
:10482C0028BF013322EA000219461046E7E700BF11
:10483C00FFFF0F00F8B500BFF8BC08BC9E467047E0
:0C484C00F8B500BFF8BC08BC9E467047E1
:104858000D0A656C657661746F722075700D0A0DAE
:104868000A0000000D0A656C657661746F7220732A
:10487800746F70730D0A0D0A000000000D0A656C54
:10488800657661746F7220646F776E0D0A0D0A0089
:104898000D0A7468652063757272656E7420666CA3
:1048A8006F6F723A2025640D0A0D0A000D0A5072C6
:1048B8006573732074686520666F6C6C6F77696EBA
:1048C80067206B65790D0A6B657920773A20656CEE
:1048D800657661746F722075700D0A6B6579207347
:1048E8003A20656C657661746F7220646F776E0D1F
:1048F8000A6B657920663A20746865206375727260
:10490800656E7420666C6F6F720D0A0D0A000000E8
:104918000D0A31ECB8B50D0A0D0A00000D0A32EC8B
:10492800B8B50D0A0D0A00000D0A33ECB8B50D0A2A
:104938000D0A00000D0A34ECB8B50D0A0D0A000086
:104948000D0AED9884EC9EAC202564ECB8B5EC9E7D
:1049580085EB8B88EB8BA42E0D0A0D0A0000000056
:104968000D0A50726573732074686520666F6C6CED
:104978006F77696E67206B65790D0A6B65792031F1
:104988003A2074686520666972737420666C6F6F6C
:10499800720D0A6B657920323A2074686520736558
:1049A800636F6E6420666C6F6F720D0A6B65792099
:1049B800333A2074686520746869726420666C6F85
:1049C8006F720D0A6B657920343A20746865206629
:1049D8006F7572746820666C6F6F720D0A6B6579FB
:1049E80020663A207468652063757272656E74205B
:1049F800666C6F6F720D0A0D0A0000000D0AEC97C5
:104A080098EBA088EBB2A0EC9DB4ED84B020EC9EAE
:104A180091EB8F99ECA095ECA7800D0A0D0A000088
:104A28000D0AEC9798EBA088EBB2A0EC9DB4ED844E
:104A3800B020EC9E91EB8F99EC8B9CEC9E910D0A2B
:104A48000D0A00000D0A2564ECB8B5EC9CBCEBA17E
:104A58009C20EC9DB4EB8F99ED95A9EB8B88EB8BA3
:104A6800A42E0D0A0D0A00000D0A2564ECB8B5EC59
:104A78009E85EB8B88EB8BA42E0D0A0D0A00000097
:104A88000D0A54686520656C657661746F72206DD7
:104A980061646520627920EAB3B5EAB8B0ECA09504
:104AA8000D0A0D0A000000000000000000000000D0
:104AB80001020304060708090000000001020304BC
:104AC80002030405060708090A0B0C0D0E0F101047
:104AD8000102232D302B2000686C4C006566674569
:104AE800464700303132333435363738394142435E
:104AF800444546003031323334353637383961620F
:084B0800636465660000000013
:044B10003101000867
:044B14000D01000887
:104B180004040101050000000024F4001000000056
:104B2800010000000000000074030020DC030020E6
:104B38004404002000000000000000000000000005
:104B4800000000000000000000000000000000005D
:104B5800000000000000000000000000000000004D
:104B6800000000000000000000000000000000003D
:044B78001400002005
:040000050800193D99
:00000001FF
